:020000040000FA
:06000000C4EF03F0120042
:020006000000F8
:060008000FEF00F01200F2
:02000E001200DE
:0800180045EF01F01200DACF00
:10002000E4FFE2CFDAFFE9CFE4FFEACFE4FFF6CF67
:10003000E4FFF7CFE4FFF5CFE4FFF3CFE4FFF4CF25
:10004000E4FFFACFE4FF00EE00F0100EE80403E353
:10005000EECFE4FFFBD700EE10F0020EE80403E35E
:10006000EECFE4FFFBD7E6529D50010B01E1E9D052
:100070009E50010B01E1E5D09E90800EE66EF80ED9
:10008000E66E98EC03F0E552E5520001666B676B93
:100090008B960A0EE66ED2EC03F0E5528B86010ECB
:1000A000E66ED2EC03F0E5528B96010EE66ED2ECD2
:1000B00003F0E55282A803D0020E000167278B8669
:1000C000010EE66ED2EC03F0E5528B96010EE66E61
:1000D000D2EC03F0E55282A802D00001672B8B8698
:1000E000010EE66ED2EC03F0E5528B96010EE66E41
:1000F000D2EC03F0E55282A805D0800E00016627FD
:10010000000E67238B86010EE66ED2EC03F0E552FB
:100110008B96010EE66ED2EC03F0E55282A805D074
:10012000400E00016627000E67238B86010EE66EE7
:10013000D2EC03F0E5528B96010EE66ED2EC03F0A2
:10014000E55282A805D0200E00016627000E672325
:100150008B86010EE66ED2EC03F0E5528B96010E13
:10016000E66ED2EC03F0E55282A805D0100E000135
:100170006627000E67238B86010EE66ED2EC03F035
:10018000E5528B96010EE66ED2EC03F0E55282A8A2
:1001900005D0080E00016627000E67238B86010E2E
:1001A000E66ED2EC03F0E5528B96010EE66ED2ECD1
:1001B00003F0E55282A805D0040E00016627000E68
:1001C00067238B86010EE66ED2EC03F0E5528B9628
:1001D000010EE66ED2EC03F0E55282A805D0020EC5
:1001E00000016627000E67238B86010EE66ED2ECB7
:1001F00003F0E5528B96010EE66ED2EC03F0E55269
:1002000082A804D00001662B000E67238B86010EA6
:10021000E66ED2EC03F0E5528B96010EE66ED2EC60
:1002200003F0E5528B86000160B105D0608166C0A5
:1002300062F067C063F06851691103E06807000E5F
:10024000695BE55200EE11F0020EE80403E3E5CF2E
:10025000EDFFFBD700EE0FF0100EE80403E3E5CF4F
:10026000EDFFFBD7E5CFFAFFE5CFF4FFE5CFF3FFD6
:10027000E5CFF5FFE5CFF7FFE5CFF6FFE5CFEAFFE6
:10028000E5CFE9FFE5CFDAFF1100D8CFE4FFE0CFFB
:10029000E4FFE46EDACFE4FFE2CFDAFFE652E552A4
:1002A000E5CFDAFFE550E5CFE0FFE5CFD8FF10005E
:1002B000D38CD38AD388D392D3909B8CD3B402D0DF
:1002C000FDD7FCD77E6A7F6A806A816A826A926AF9
:1002D000936AF30E946E896A8A6A8B6ACD0EE66E13
:1002E00077EC03F0E552800EE66EF80EE66E98ECC1
:1002F00003F0E552E5529F80F194D08EF28CF28E9D
:100300008B9412000001626B636B646B656B666BB0
:10031000676B609389821200CBDFF4DF03D89BD830
:10032000FDD71200000160A195D062C004F063C047
:1003300005F0066A076A870E096E010E0A6E0B6ADF
:100340000C6A1BEC03F000C004F001C005F002C011
:1003500006F003C007F0E80E096E030E0A6E0B6A82
:100360000C6A53EC03F004C062F005C063F00001B6
:10037000616BC70ED8806255000E635505E2C80E4A
:10038000625F000E635B618F630ED8806255000E62
:10039000635505E2640E625F000E635B618D4F0E74
:1003A000D8806255000E635505E2500E625F000E64
:1003B000635B618B270ED8806255000E635505E2A2
:1003C000280E625F000E635B6189130ED880625550
:1003D000000E635505E2140E625F000E635B6187D9
:1003E000090ED8806255000E635505E20A0E625F61
:1003F000000E635B6185070ED8806255000E635561
:1004000005E2080E625F000E635B6183030ED88015
:100410006255000E635505E2040E625F000E635BD9
:100420006181010ED8806255000E635506E2020E0E
:10043000625F000E635B898E01D0899E000ED880BA
:100440006255000E635502E2898C01D0899C61C01F
:100450008AFF6091120000016651671103E18984EF
:10046000698502D069A5899482A007D0898468AF84
:1004700002D0898001D089900AD082A207D08984D5
:1004800069A302D0898001D0899001D089801200AF
:10049000D9CFE6FFE1CFD9FFA66AFE0EDB50A96EE9
:1004A000A680A85000D0E552E7CFD9FF1200D9CFDF
:1004B000E6FFE1CFD9FF020EE126FE0EDBCFE6FF1D
:1004C000E7DFE552DE6EDD6ADECF10F0DDCF11F042
:1004D00010C011F0106A10C0DEFF11C0DDFFFE0E6B
:1004E000DB28E66ED5DFE552DE26000EDD22DECF0C
:1004F00010F0DDCF11F010C0F3FF11C0F4FF020EB9
:10050000E15C03E200D0E16AE552E16EE552E7CF3B
:10051000D9FF1200D9CFE6FFE1CFD9FFE652F25062
:10052000DF6EF29EF29CA66AA684FE0EDB50A96ED8
:10053000FD0EDB50A86E550EA76EAA0EA76EA68202
:10054000A1A8FED7A694DF50F26EE552E552E7CFA0
:10055000D9FF1200D9CFE6FFE1CFD9FFFC0EDBCFE8
:1005600010F0FD0EDBCF11F011C010F0116A105029
:10057000E66EFE0EDBCFE6FFCDDFE552E552FC0E68
:10058000DBCFE6FFFE0EDB28E66EC4DFE552E55268
:08059000E552E7CFD9FF12008C
:08059800060EF66E000EF76E70
:1005A000000EF86E00010900F5506F6F0900F5505C
:1005B000706F03E16F6701D03DD00900F5506A6F9D
:1005C0000900F5506B6F0900F5506C6F09000900C8
:1005D000F550E96E0900F550EA6E090009000900BE
:1005E000F5506D6F0900F5506E6F09000900F6CFE8
:1005F00071F0F7CF72F0F8CF73F06AC0F6FF6BC0FE
:10060000F7FF6CC0F8FF00016D5302E16E5307E085
:100610000900F550EE6E6D07F8E26E07F9D771C06C
:10062000F6FF72C0F7FF73C0F8FF00016F07000EFE
:06063000705BBFD7120051
:0A06360004500902F3CF00F0F4CFE6
:1006400001F00A02F3500126000EF420026E04505D
:100650000B02F3500226000EF420036E04500C022D
:10066000F350032605500902F3500126F4500222EC
:10067000000E032205500A02F3500226F450032212
:1006800005500B02F350032606500902F3500226D0
:10069000F450032206500A02F350032607500902C1
:0606A000F35003261200D6
:0A06A600036A026A016A006A200E6E
:1006B000E76ED89004360536063607360036013622
:1006C000023603360950005C0A5001580B5002589C
:1006D0000C50035809E30950005E0A50015A0B50B0
:0E06E000025A0C50035A042AE72EE4D71200E7
:0206EE00D9CF62
:1006F000E6FFDACFE6FFE1CFD9FFE2CFDAFFFD0E6A
:10070000DB507E0BCD6EFD0EDBAC02D0CD8E01D06A
:10071000CD9ECF6ACE6A9E90DBAE02D09D8001D086
:100720009D90CD80E552E5CFDAFFE7CFD9FF1200EB
:10073000D9CFE6FFDACFE6FFE1CFD9FFE2CFDAFF8C
:10074000E652E652FC0EDBCFDEFFDBCFDDFF010E13
:10075000DB50CF6EDF50CE6EE552E552E552E5CF6D
:08076000DAFFE7CFD9FF120018
:08076800000EF36E00EE00F03C
:10077000020E01D81200EA6002D0EE6AFCD7F350F4
:08078000E9601200EE6AFCD7EB
:0807880011EE00F021EE00F07B
:10079000F86A0F9CCCEC02F007EC00F08CEC01F056
:0407A000FBD7120071
:0C07A400FF0EE350E84E1200000000D0F1
:0A07B00000D000D0E82EFAD71200A6
:020000040030CA
:0100010008F6
:010002001AE3
:010003001EDE
:010005008179
:010006008178
:00000001FF
